{
  "contractName": "CarSelling",
  "abi": [
    {
      "anonymous": false,
      "inputs": [
        {
          "indexed": false,
          "internalType": "uint256",
          "name": "index",
          "type": "uint256"
        }
      ],
      "name": "Added",
      "type": "event"
    },
    {
      "anonymous": false,
      "inputs": [
        {
          "indexed": true,
          "internalType": "address",
          "name": "previousOwner",
          "type": "address"
        },
        {
          "indexed": true,
          "internalType": "address",
          "name": "newOwner",
          "type": "address"
        }
      ],
      "name": "OwnershipTransferred",
      "type": "event"
    },
    {
      "anonymous": false,
      "inputs": [
        {
          "indexed": false,
          "internalType": "uint256",
          "name": "carId",
          "type": "uint256"
        }
      ],
      "name": "carBuyed",
      "type": "event"
    },
    {
      "anonymous": false,
      "inputs": [
        {
          "indexed": false,
          "internalType": "uint256",
          "name": "amount",
          "type": "uint256"
        },
        {
          "indexed": false,
          "internalType": "uint256",
          "name": "date",
          "type": "uint256"
        }
      ],
      "name": "withdrawl",
      "type": "event"
    },
    {
      "inputs": [],
      "name": "carId",
      "outputs": [
        {
          "internalType": "uint256",
          "name": "",
          "type": "uint256"
        }
      ],
      "stateMutability": "view",
      "type": "function",
      "constant": true
    },
    {
      "inputs": [
        {
          "internalType": "uint256",
          "name": "",
          "type": "uint256"
        }
      ],
      "name": "inventory",
      "outputs": [
        {
          "internalType": "address",
          "name": "creator",
          "type": "address"
        },
        {
          "internalType": "string",
          "name": "carName",
          "type": "string"
        },
        {
          "internalType": "uint256",
          "name": "sellPrice",
          "type": "uint256"
        },
        {
          "internalType": "uint256",
          "name": "launchDate",
          "type": "uint256"
        },
        {
          "internalType": "uint256",
          "name": "productId",
          "type": "uint256"
        }
      ],
      "stateMutability": "view",
      "type": "function",
      "constant": true
    },
    {
      "inputs": [],
      "name": "owner",
      "outputs": [
        {
          "internalType": "address",
          "name": "",
          "type": "address"
        }
      ],
      "stateMutability": "view",
      "type": "function",
      "constant": true
    },
    {
      "inputs": [],
      "name": "renounceOwnership",
      "outputs": [],
      "stateMutability": "nonpayable",
      "type": "function"
    },
    {
      "inputs": [
        {
          "internalType": "uint256",
          "name": "",
          "type": "uint256"
        }
      ],
      "name": "soldCars",
      "outputs": [
        {
          "internalType": "address",
          "name": "carOwner",
          "type": "address"
        },
        {
          "internalType": "uint256",
          "name": "productId",
          "type": "uint256"
        },
        {
          "internalType": "uint256",
          "name": "buyDate",
          "type": "uint256"
        },
        {
          "internalType": "uint256",
          "name": "buyPrice",
          "type": "uint256"
        }
      ],
      "stateMutability": "view",
      "type": "function",
      "constant": true
    },
    {
      "inputs": [
        {
          "internalType": "address",
          "name": "newOwner",
          "type": "address"
        }
      ],
      "name": "transferOwnership",
      "outputs": [],
      "stateMutability": "nonpayable",
      "type": "function"
    },
    {
      "inputs": [
        {
          "internalType": "address",
          "name": "owner",
          "type": "address"
        }
      ],
      "name": "initialize",
      "outputs": [],
      "stateMutability": "nonpayable",
      "type": "function"
    },
    {
      "inputs": [
        {
          "internalType": "string",
          "name": "carName",
          "type": "string"
        },
        {
          "internalType": "uint256",
          "name": "sellPrice",
          "type": "uint256"
        }
      ],
      "name": "addCarToInventory",
      "outputs": [
        {
          "internalType": "bool",
          "name": "",
          "type": "bool"
        }
      ],
      "stateMutability": "nonpayable",
      "type": "function"
    },
    {
      "inputs": [
        {
          "internalType": "address",
          "name": "buyerAddress",
          "type": "address"
        },
        {
          "internalType": "uint256",
          "name": "productId",
          "type": "uint256"
        }
      ],
      "name": "carBuyer",
      "outputs": [
        {
          "internalType": "bool",
          "name": "",
          "type": "bool"
        }
      ],
      "stateMutability": "payable",
      "type": "function",
      "payable": true
    },
    {
      "inputs": [
        {
          "internalType": "address payable",
          "name": "_to",
          "type": "address"
        },
        {
          "internalType": "uint256",
          "name": "amount",
          "type": "uint256"
        }
      ],
      "name": "withdrawFund",
      "outputs": [
        {
          "internalType": "uint256",
          "name": "",
          "type": "uint256"
        }
      ],
      "stateMutability": "payable",
      "type": "function",
      "payable": true
    },
    {
      "inputs": [],
      "name": "getContractBalance",
      "outputs": [
        {
          "internalType": "uint256",
          "name": "",
          "type": "uint256"
        }
      ],
      "stateMutability": "view",
      "type": "function",
      "constant": true
    }
  ],
  "bytecode": "0x608060405234801561001057600080fd5b50611b4c806100206000396000f3fe60806040526004361061009c5760003560e01c80639e5c7317116100645780639e5c73171461018c578063ad93a45f146101bc578063c4d66de8146101fc578063f2fde38b14610225578063f7c8d2211461024e578063feae576c1461027e5761009c565b80634272ee18146100a15780636f9fb98a146100e2578063715018a61461010d5780638da5cb5b14610124578063983eb0141461014f575b600080fd5b3480156100ad57600080fd5b506100c860048036038101906100c39190611344565b6102a9565b6040516100d9959493929190611660565b60405180910390f35b3480156100ee57600080fd5b506100f7610387565b604051610104919061181a565b60405180910390f35b34801561011957600080fd5b5061012261038f565b005b34801561013057600080fd5b506101396104cc565b6040516101469190611645565b60405180910390f35b34801561015b57600080fd5b50610176600480360381019061017191906112f0565b6104f6565b60405161018391906116ff565b60405180910390f35b6101a660048036038101906101a191906112b4565b6106bc565b6040516101b391906116ff565b60405180910390f35b3480156101c857600080fd5b506101e360048036038101906101de9190611344565b61096e565b6040516101f394939291906116ba565b60405180910390f35b34801561020857600080fd5b50610223600480360381019061021e919061124f565b6109be565b005b34801561023157600080fd5b5061024c6004803603810190610247919061124f565b610ab1565b005b61026860048036038101906102639190611278565b610c5d565b604051610275919061181a565b60405180910390f35b34801561028a57600080fd5b50610293610db3565b6040516102a0919061181a565b60405180910390f35b60656020528060005260406000206000915090508060000160009054906101000a900473ffffffffffffffffffffffffffffffffffffffff16908060010180546102f290611a01565b80601f016020809104026020016040519081016040528092919081815260200182805461031e90611a01565b801561036b5780601f106103405761010080835404028352916020019161036b565b820191906000526020600020905b81548152906001019060200180831161034e57829003601f168201915b5050505050908060020154908060030154908060040154905085565b600047905090565b610397610db9565b73ffffffffffffffffffffffffffffffffffffffff166103b56104cc565b73ffffffffffffffffffffffffffffffffffffffff161461040b576040517f08c379a0000000000000000000000000000000000000000000000000000000008152600401610402906117ba565b60405180910390fd5b600073ffffffffffffffffffffffffffffffffffffffff16603360009054906101000a900473ffffffffffffffffffffffffffffffffffffffff1673ffffffffffffffffffffffffffffffffffffffff167f8be0079c531659141344cd1fd0a4f28419497f9722a3daafe3b4186f6b6457e060405160405180910390a36000603360006101000a81548173ffffffffffffffffffffffffffffffffffffffff021916908373ffffffffffffffffffffffffffffffffffffffff160217905550565b6000603360009054906101000a900473ffffffffffffffffffffffffffffffffffffffff16905090565b6000610500610db9565b73ffffffffffffffffffffffffffffffffffffffff1661051e6104cc565b73ffffffffffffffffffffffffffffffffffffffff1614610574576040517f08c379a000000000000000000000000000000000000000000000000000000000815260040161056b906117ba565b60405180910390fd5b60006040518060a001604052803373ffffffffffffffffffffffffffffffffffffffff16815260200185815260200184815260200142815260200160675481525090508060656000606754815260200190815260200160002060008201518160000160006101000a81548173ffffffffffffffffffffffffffffffffffffffff021916908373ffffffffffffffffffffffffffffffffffffffff1602179055506020820151816001019080519060200190610630929190611105565b5060408201518160020155606082015181600301556080820151816004015590505060016067600082825461066591906118db565b925050819055507f64a55044d1f2eddebe1b90e8e2853e8e96931cefadbfa0b2ceb34bee36061941600160675461069c9190611931565b6040516106a9919061181a565b60405180910390a1600191505092915050565b60006067548210610702576040517f08c379a00000000000000000000000000000000000000000000000000000000081526004016106f99061179a565b60405180910390fd5b600073ffffffffffffffffffffffffffffffffffffffff168373ffffffffffffffffffffffffffffffffffffffff161415610772576040517f08c379a0000000000000000000000000000000000000000000000000000000008152600401610769906117fa565b60405180910390fd5b600073ffffffffffffffffffffffffffffffffffffffff166066600084815260200190815260200160002060000160009054906101000a900473ffffffffffffffffffffffffffffffffffffffff1673ffffffffffffffffffffffffffffffffffffffff1614610817576040517f08c379a000000000000000000000000000000000000000000000000000000000815260040161080e906117da565b60405180910390fd5b600060656000848152602001908152602001600020905080600201543414610874576040517f08c379a000000000000000000000000000000000000000000000000000000000815260040161086b9061175a565b60405180910390fd5b600060405180608001604052808673ffffffffffffffffffffffffffffffffffffffff168152602001858152602001428152602001348152509050806066600086815260200190815260200160002060008201518160000160006101000a81548173ffffffffffffffffffffffffffffffffffffffff021916908373ffffffffffffffffffffffffffffffffffffffff1602179055506020820151816001015560408201518160020155606082015181600301559050507f372431e591eb1945d5501cb9b1b20a5179b35b84ab5f833739b83878db01a8e68460405161095a919061181a565b60405180910390a160019250505092915050565b60666020528060005260406000206000915090508060000160009054906101000a900473ffffffffffffffffffffffffffffffffffffffff16908060010154908060020154908060030154905084565b600060019054906101000a900460ff16806109e4575060008054906101000a900460ff16155b610a23576040517f08c379a0000000000000000000000000000000000000000000000000000000008152600401610a1a9061177a565b60405180910390fd5b60008060019054906101000a900460ff161590508015610a73576001600060016101000a81548160ff02191690831515021790555060016000806101000a81548160ff0219169083151502179055505b610a7b610dc1565b610a8482610ab1565b60006067819055508015610aad5760008060016101000a81548160ff0219169083151502179055505b5050565b610ab9610db9565b73ffffffffffffffffffffffffffffffffffffffff16610ad76104cc565b73ffffffffffffffffffffffffffffffffffffffff1614610b2d576040517f08c379a0000000000000000000000000000000000000000000000000000000008152600401610b24906117ba565b60405180910390fd5b600073ffffffffffffffffffffffffffffffffffffffff168173ffffffffffffffffffffffffffffffffffffffff161415610b9d576040517f08c379a0000000000000000000000000000000000000000000000000000000008152600401610b949061173a565b60405180910390fd5b8073ffffffffffffffffffffffffffffffffffffffff16603360009054906101000a900473ffffffffffffffffffffffffffffffffffffffff1673ffffffffffffffffffffffffffffffffffffffff167f8be0079c531659141344cd1fd0a4f28419497f9722a3daafe3b4186f6b6457e060405160405180910390a380603360006101000a81548173ffffffffffffffffffffffffffffffffffffffff021916908373ffffffffffffffffffffffffffffffffffffffff16021790555050565b6000610c67610db9565b73ffffffffffffffffffffffffffffffffffffffff16610c856104cc565b73ffffffffffffffffffffffffffffffffffffffff1614610cdb576040517f08c379a0000000000000000000000000000000000000000000000000000000008152600401610cd2906117ba565b60405180910390fd5b814710158015610ceb5750600082115b610d2a576040517f08c379a0000000000000000000000000000000000000000000000000000000008152600401610d219061171a565b60405180910390fd5b8273ffffffffffffffffffffffffffffffffffffffff166108fc839081150290604051600060405180830381858888f19350505050158015610d70573d6000803e3d6000fd5b507fa97868be3136fd22d1bc17f7cf8b1a0f1656e5acbb591d7d54270e574e001e878242604051610da2929190611835565b60405180910390a181905092915050565b60675481565b600033905090565b600060019054906101000a900460ff1680610de7575060008054906101000a900460ff16155b610e26576040517f08c379a0000000000000000000000000000000000000000000000000000000008152600401610e1d9061177a565b60405180910390fd5b60008060019054906101000a900460ff161590508015610e76576001600060016101000a81548160ff02191690831515021790555060016000806101000a81548160ff0219169083151502179055505b610e7e610eaa565b610e86610f83565b8015610ea75760008060016101000a81548160ff0219169083151502179055505b50565b600060019054906101000a900460ff1680610ed0575060008054906101000a900460ff16155b610f0f576040517f08c379a0000000000000000000000000000000000000000000000000000000008152600401610f069061177a565b60405180910390fd5b60008060019054906101000a900460ff161590508015610f5f576001600060016101000a81548160ff02191690831515021790555060016000806101000a81548160ff0219169083151502179055505b8015610f805760008060016101000a81548160ff0219169083151502179055505b50565b600060019054906101000a900460ff1680610fa9575060008054906101000a900460ff16155b610fe8576040517f08c379a0000000000000000000000000000000000000000000000000000000008152600401610fdf9061177a565b60405180910390fd5b60008060019054906101000a900460ff161590508015611038576001600060016101000a81548160ff02191690831515021790555060016000806101000a81548160ff0219169083151502179055505b6000611042610db9565b905080603360006101000a81548173ffffffffffffffffffffffffffffffffffffffff021916908373ffffffffffffffffffffffffffffffffffffffff1602179055508073ffffffffffffffffffffffffffffffffffffffff16600073ffffffffffffffffffffffffffffffffffffffff167f8be0079c531659141344cd1fd0a4f28419497f9722a3daafe3b4186f6b6457e060405160405180910390a35080156111025760008060016101000a81548160ff0219169083151502179055505b50565b82805461111190611a01565b90600052602060002090601f016020900481019282611133576000855561117a565b82601f1061114c57805160ff191683800117855561117a565b8280016001018555821561117a579182015b8281111561117957825182559160200191906001019061115e565b5b509050611187919061118b565b5090565b5b808211156111a457600081600090555060010161118c565b5090565b60006111bb6111b68461188f565b61185e565b9050828152602081018484840111156111d357600080fd5b6111de8482856119bf565b509392505050565b6000813590506111f581611ad1565b92915050565b60008135905061120a81611ae8565b92915050565b600082601f83011261122157600080fd5b81356112318482602086016111a8565b91505092915050565b60008135905061124981611aff565b92915050565b60006020828403121561126157600080fd5b600061126f848285016111e6565b91505092915050565b6000806040838503121561128b57600080fd5b6000611299858286016111fb565b92505060206112aa8582860161123a565b9150509250929050565b600080604083850312156112c757600080fd5b60006112d5858286016111e6565b92505060206112e68582860161123a565b9150509250929050565b6000806040838503121561130357600080fd5b600083013567ffffffffffffffff81111561131d57600080fd5b61132985828601611210565b925050602061133a8582860161123a565b9150509250929050565b60006020828403121561135657600080fd5b60006113648482850161123a565b91505092915050565b61137681611965565b82525050565b61138581611989565b82525050565b6000611396826118bf565b6113a081856118ca565b93506113b08185602086016119ce565b6113b981611ac0565b840191505092915050565b60006113d16031836118ca565b91507f436f6e74726163742042616c616e63652030206f72206c657373207468616e2060008301527f616d6f756e7420737065636966696564200000000000000000000000000000006020830152604082019050919050565b60006114376026836118ca565b91507f4f776e61626c653a206e6577206f776e657220697320746865207a65726f206160008301527f64647265737300000000000000000000000000000000000000000000000000006020830152604082019050919050565b600061149d6016836118ca565b91507f416d6d6f756e74206973206e6f7420636f7272656374000000000000000000006000830152602082019050919050565b60006114dd602e836118ca565b91507f496e697469616c697a61626c653a20636f6e747261637420697320616c72656160008301527f647920696e697469616c697a65640000000000000000000000000000000000006020830152604082019050919050565b60006115436013836118ca565b91507f4e6f7420657869737465642070726f64756374000000000000000000000000006000830152602082019050919050565b60006115836020836118ca565b91507f4f776e61626c653a2063616c6c6572206973206e6f7420746865206f776e65726000830152602082019050919050565b60006115c36010836118ca565b91507f43617220616c726561647920736f6c64000000000000000000000000000000006000830152602082019050919050565b6000611603601b836118ca565b91507f427579657220416464726573732063616e2774206265206e756c6c00000000006000830152602082019050919050565b61163f816119b5565b82525050565b600060208201905061165a600083018461136d565b92915050565b600060a082019050611675600083018861136d565b8181036020830152611687818761138b565b90506116966040830186611636565b6116a36060830185611636565b6116b06080830184611636565b9695505050505050565b60006080820190506116cf600083018761136d565b6116dc6020830186611636565b6116e96040830185611636565b6116f66060830184611636565b95945050505050565b6000602082019050611714600083018461137c565b92915050565b60006020820190508181036000830152611733816113c4565b9050919050565b600060208201905081810360008301526117538161142a565b9050919050565b6000602082019050818103600083015261177381611490565b9050919050565b60006020820190508181036000830152611793816114d0565b9050919050565b600060208201905081810360008301526117b381611536565b9050919050565b600060208201905081810360008301526117d381611576565b9050919050565b600060208201905081810360008301526117f3816115b6565b9050919050565b60006020820190508181036000830152611813816115f6565b9050919050565b600060208201905061182f6000830184611636565b92915050565b600060408201905061184a6000830185611636565b6118576020830184611636565b9392505050565b6000604051905081810181811067ffffffffffffffff8211171561188557611884611a91565b5b8060405250919050565b600067ffffffffffffffff8211156118aa576118a9611a91565b5b601f19601f8301169050602081019050919050565b600081519050919050565b600082825260208201905092915050565b60006118e6826119b5565b91506118f1836119b5565b9250827fffffffffffffffffffffffffffffffffffffffffffffffffffffffffffffffff0382111561192657611925611a33565b5b828201905092915050565b600061193c826119b5565b9150611947836119b5565b92508282101561195a57611959611a33565b5b828203905092915050565b600061197082611995565b9050919050565b600061198282611995565b9050919050565b60008115159050919050565b600073ffffffffffffffffffffffffffffffffffffffff82169050919050565b6000819050919050565b82818337600083830152505050565b60005b838110156119ec5780820151818401526020810190506119d1565b838111156119fb576000848401525b50505050565b60006002820490506001821680611a1957607f821691505b60208210811415611a2d57611a2c611a62565b5b50919050565b7f4e487b7100000000000000000000000000000000000000000000000000000000600052601160045260246000fd5b7f4e487b7100000000000000000000000000000000000000000000000000000000600052602260045260246000fd5b7f4e487b7100000000000000000000000000000000000000000000000000000000600052604160045260246000fd5b6000601f19601f8301169050919050565b611ada81611965565b8114611ae557600080fd5b50565b611af181611977565b8114611afc57600080fd5b50565b611b08816119b5565b8114611b1357600080fd5b5056fea26469706673582212206dbf4a7f61f49cd2614597e1b71d094ee3de53a648b1814ebd0094694697c4ac64736f6c63430008000033",
  "immutableReferences": {},
  "source": "// SPDX-License-Identifier: MIT\r\npragma solidity ^0.8.0;\r\nimport \"@openzeppelin/contracts-upgradeable/proxy/utils/Initializable.sol\";\r\nimport \"@openzeppelin/contracts-upgradeable/access/OwnableUpgradeable.sol\";\r\n\r\ncontract CarSelling  is OwnableUpgradeable {\r\n    \r\n    event Added(uint256 index);\r\n    event carBuyed(uint256 carId);\r\n    event withdrawl(uint256 amount,uint256 date);\r\n    \r\n    struct Product{\r\n        address creator;\r\n        string carName;\r\n        uint256 sellPrice;\r\n        uint256 launchDate;\r\n        uint productId;\r\n    }\r\n    \r\n    struct Buyer{\r\n        address carOwner;\r\n        uint productId;\r\n        uint buyDate;\r\n        uint buyPrice;\r\n    }\r\n    mapping(uint => Product) public inventory;\r\n    mapping(uint =>Buyer) public soldCars;\r\n    uint256  public carId;\r\n\r\n    function initialize(address owner) public initializer {\r\n        __Ownable_init();\r\n        transferOwnership(owner);\r\n        carId=0;\r\n    }\r\n    //sellPrice is in wei\r\n    function addCarToInventory(string memory carName,uint256 sellPrice) public onlyOwner returns (bool) {\r\n        Product memory newCar =Product({creator: msg.sender,sellPrice:sellPrice,carName: carName, productId: carId, launchDate: block.timestamp});\r\n        inventory[carId]=newCar;\r\n        carId +=1;\r\n        emit Added(carId-1);\r\n        return true;\r\n    }\r\n    \r\n    function carBuyer(address buyerAddress,uint productId)public payable returns(bool) {\r\n        require(productId<carId,\"Not existed product\");\r\n        require(buyerAddress!=address(0),\"Buyer Address can't be null\");\r\n        require(soldCars[productId].carOwner==address(0),\"Car already sold\");\r\n        Product storage _product=inventory[productId];\r\n        require(msg.value==_product.sellPrice,\"Ammount is not correct\");\r\n        Buyer memory buyer=Buyer({carOwner:buyerAddress,productId:productId,buyDate:block.timestamp,buyPrice:msg.value});\r\n        soldCars[productId]=buyer;\r\n        emit carBuyed(productId);\r\n        return true;\r\n    }\r\n    function withdrawFund(address payable _to,uint amount) public payable onlyOwner returns(uint){\r\n        require(address(this).balance>=amount && amount>0,\"Contract Balance 0 or less than amount specified \");\r\n        _to.transfer(amount);\r\n        emit withdrawl(amount,block.timestamp);\r\n        return amount;\r\n    }\r\n    function getContractBalance() public view returns(uint){\r\n        return address(this).balance;\r\n    }\r\n}",
  "sourcePath": "C:/Users/raja roy/Desktop/Solidity-test/contracts/CarSelling.sol",
  "compiler": {
    "name": "solc",
    "version": "0.8.0+commit.c7dfd78e.Emscripten.clang"
  },
  "schemaVersion": "3.3.3",
  "updatedAt": "2021-06-30T06:48:39.229Z",
  "networkType": "ethereum",
  "devdoc": {
    "kind": "dev",
    "methods": {
      "owner()": {
        "details": "Returns the address of the current owner."
      },
      "renounceOwnership()": {
        "details": "Leaves the contract without owner. It will not be possible to call `onlyOwner` functions anymore. Can only be called by the current owner. NOTE: Renouncing ownership will leave the contract without an owner, thereby removing any functionality that is only available to the owner."
      },
      "transferOwnership(address)": {
        "details": "Transfers ownership of the contract to a new account (`newOwner`). Can only be called by the current owner."
      }
    },
    "version": 1
  },
  "userdoc": {
    "kind": "user",
    "methods": {},
    "version": 1
  }
}